:100000000C94A7000C94D40B0C94C4000C94C40062
:100010000C94C4000C94C4000C94C4000C94C40050
:100020000C94C4000C94C4000C94C4000C94C40040
:100030000C94C4000C94C4000C94C4000C94C40030
:100040000C94C4000C94C4000C94C4000C94C40020
:100050000C94C40000407A10F35A00A0724E1809A4
:100060000010A5D4E80000E87648170000E40B541F
:10007000020000CA9A3B000000E1F50500008096EE
:100080009800000040420F000000A0860100000020
:10009000102700000000E8030000000064000000DA
:1000A00000000A00000000000100000000002C76A3
:1000B000D888DC674F0823DFC1DFAE59E1B1B796BE
:1000C000E5E3E453C63AE651997696E8E6C284261B
:1000D000EB898C9B62ED407C6FFCEFBC9C9F40F2F7
:1000E000BAA56FA5F490055A2AF75C936B6CF96773
:1000F0006DC11BFCE0E40D47FEF520E6B500D0ED38
:10010000902E0300943577050080841E080000209F
:100110004E0A000000C80C333333330F986E12833D
:100120001141EF8D2114893BE65516CFFEE6DB1811
:10013000D1844B381BF77C1D901DA4BBE4242032D6
:1001400084725E228100C9F124ECA1E53D271124CF
:100150001FBECFE5D8E0DEBFCDBF10E0A0E6B0E027
:10016000E4ECFDE102C005900D92A63EB107D9F77F
:1001700020E0A6EEB0E001C01D92AA3EB207E1F772
:100180000E9485030C94E00E0C940000672B09F08C
:100190009FC0009711F4D89808958130910511F40B
:1001A000D99808958230910511F4DA980895833032
:1001B000910511F4DB9808958430910511F4DC98D1
:1001C00008958530910511F4DD98089586309105E4
:1001D00011F4DE9808958730910511F4DF980895A1
:1001E0008A30910511F4C09808958B30910511F46F
:1001F000C19808958C30910511F4C29808958D30FE
:10020000910511F4C39808958E30910511F4C498A6
:1002100008958F30910511F4C598089580319105A6
:1002200011F4C69808958131910511F4C798089585
:100230008431910511F4A89808958531910511F440
:10024000A99808958631910511F4AA9808958731E7
:10025000910511F4AB9808958831910511F4AC988B
:1002600008958931910511F4AD9808958A31910569
:1002700011F4AE9808958B31910511F4AF9808955B
:100280008E31910511F4909808958F31910511F4F4
:10029000919808958032910511F4929808958132D1
:1002A000910511F4939808958232910511F4949870
:1002B00008958332910511F495980895843291053B
:1002C00011F496980895859709F09FC0979808951E
:1002D000009711F4D89A08958130910511F4D99AB4
:1002E00008958230910511F4DA9A089583309105CA
:1002F00011F4DB9A08958430910511F4DC9A089585
:100300008530910511F4DD9A08958630910511F438
:10031000DE9A08958730910511F4DF9A08958A30A6
:10032000910511F4C09A08958B30910511F4C19A8A
:1003300008958C30910511F4C29A08958D3091057D
:1003400011F4C39A08958E30910511F4C49A08955A
:100350008F30910511F4C59A08958031910511F4FB
:10036000C69A08958131910511F4C79A0895843190
:10037000910511F4A89A08958531910511F4A99A6F
:1003800008958631910511F4AA9A0895873191054F
:1003900011F4AB9A08958831910511F4AC9A08953F
:1003A0008931910511F4AD9A08958A31910511F4BE
:1003B000AE9A08958B31910511F4AF9A08958E315C
:1003C000910511F4909A08958F31910511F4919A45
:1003D00008958032910511F4929A08958132910521
:1003E00011F4939A08958232910511F4949A089524
:1003F0008332910511F4959A08958432910511F490
:10040000969A0895859709F4979A0895CF93C82FDF
:1004100080FF07C061E070E088E190E00E94C600C4
:1004200006C060E070E088E190E00E94C600C1FF75
:1004300007C061E070E089E190E00E94C60006C05C
:1004400060E070E089E190E00E94C600C2FF07C052
:1004500061E070E08AE190E00E94C60006C060E0C2
:1004600070E08AE190E00E94C600C3FF07C061E02F
:1004700070E08BE190E00E94C60006C060E070E092
:100480008BE190E00E94C600CF910895CF93C82FD2
:1004900060E070E086E190E00E94C6008C2F0E9430
:1004A000060261E070E087E190E00E94C60089EFFB
:1004B00090E00197F1F700C0000060E070E087E194
:1004C00090E00E94C60089EF90E00197F1F700C02C
:1004D0000000CF91089580E00E94460281E00E94D2
:1004E00046020895CF93C62F813059F480E8860FD5
:1004F00082958F700E9446028C2F8F700E94460258
:100500000CC0823051F480EC860F82958F700E946F
:1005100046028C2F8F700E944602CF91089580E092
:100520000E94060287E893E10197F1F700C00000FE
:1005300083E00E94460281EE94E00197F1F700C04B
:10054000000083E00E9446028DEB9AE00197F1F7EC
:1005500000C0000083E00E94460282E00E94460242
:1005600082E00E94460288E00E94460280E00E94EB
:1005700046028CE00E94460280E00E94460286E02D
:100580000E9446020895CF93C82F61E070E086E193
:1005900090E00E94C6008C2F82958F700E94060208
:1005A00061E070E087E190E00E94C60089EF90E092
:1005B0000197F1F700C0000060E070E087E190E093
:1005C0000E94C60089EF90E00197F1F700C000009B
:1005D0008C2F8F700E94060261E070E087E190E04E
:1005E0000E94C60089EF90E00197F1F700C000007B
:1005F00060E070E087E190E00E94C60089EF90E043
:100600000197F1F700C00000CF910895CF93DF93D9
:10061000EC018881882331F021960E94C3028991E0
:100620008111FBCFDF91CF9108958FB5826F8FBD80
:100630008EB589618EBD8FE19EE497BD86BD1BBEE0
:1006400015BE08958BB780648BBF85B7816085BF69
:100650001FBC0895909A85E08A95F1F790980895C7
:10066000161617064CF420E030E0880F811D2F5F2E
:100670003F4F26173707C9F70895AF92BF92CF9221
:10068000DF92EF92FF920F931F93CF93DF930F2E82
:10069000FAE0EF2EF12CF02DA82EB92EC12CD12C82
:1006A00024C0BE0181E00E9430038BBBF801219180
:1006B0008F0128BB9E01235031092230310520F4DF
:1006C00085B38C7F85BB03C025B3236025BBF6EAC9
:1006D000FA95F1F700C02196C830D10511F781E0F5
:1006E000E81AF108E114F10429F00A2D1B2DCC2D94
:1006F000DD2DD7CFDF91CF911F910F91FF90EF901C
:10070000DF90CF90BF90AF900895CF93DF93CDB798
:10071000DEB7E6970FB6F894DEBF0FBECDBF1FEF72
:100720001ABB17BB14BB8BEF81BB80E884BF84BFAF
:100730000E948F020E946B0288E18BBB18BB85B3BD
:100740008C7F85BB0FE312E42FE001501040204066
:10075000E1F700C000000E94150386B597B58855E3
:10076000924099BD88BD86B597B5885592409BBD8E
:100770008ABD3FE34DE053E0315040405040E1F747
:1007800000C00000BE016B5E7F4F7EA76DA72DA449
:100790006EA4CE01079698AB8FA786B597B58855FE
:1007A000924099BD88BD86B597B5885592409BBD4E
:1007B0008ABD9FE3ADE0B3E09150A040B040E1F7C7
:1007C00000C000000E942203789488E18BBB85B3AF
:1007D0008C7F85BB0F2EF4E6EF2EF12CF02D0F2E23
:1007E000FFE78F2EF02D0F2EFFEBAF2EF02D0F2EEB
:1007F000FFEDBF2EF02D0E942A038091E80090911A
:10080000E9006AE370E00E94410C8B0160E081E046
:100810000E94720280E690E00E94060360E082E09F
:100820000E94720281E790E00E9406030B301105DE
:1008300010F4B8BA0CC098012B5031092A30310598
:1008400010F4A8BA04C00531110508F088BA98B2AE
:10085000B801882777FD8095982F0E94060C022DFD
:10086000162D22E042E00E94690CEDA5FEA5019044
:100870000020E9F7319743E65DE660E270E04083EF
:1008800051836283738369E082E00E947202822D49
:10089000962D0E94060351E0E51AF108E114F104D7
:1008A00009F0A9CFF8940E94150386B597B58A512F
:1008B000944099BD88BD6FE37DE083E06150704056
:1008C0008040E1F700C000000E942203789488E194
:1008D0008BBB98BA85B38C7F85BB0F2EF4E6CF2EE9
:1008E000D12CF02D0F2EF8E18F2EF02D0F2EFFE7DB
:1008F0003F2EF02D0F2EFFEB4F2EF02D6894552438
:1009000052F80F2EFFED7F2EF02D0E942A038091CA
:10091000E8009091E9006AE370E00E94410C7B01DD
:100920008BBA98BA85B38C7F85BB60E081E00E946A
:1009300072028BE790E00E94060360E082E00E9472
:10094000720281E790E00E940603C701ABE0EA165D
:10095000F10430F45BBA78BA85B3836085BB15C007
:1009600097012B5031092A30310538F482E08BBBD6
:1009700048BA85B3836085BB08C0459730F081E0F5
:100980008BBB38BA85B3836085BBBBB2A8B2B70155
:10099000882777FD8095982F0E94060C022D162D32
:1009A00022E042E00E94690CEDA5FEA50190002026
:1009B000E9F7319703E61DE620E230E0008311837A
:1009C0002283338369E082E00E947202822D962D99
:1009D0000E9406038BBA98BA85B38C7F85BB11E061
:1009E000C11AD108C114D10409F08FCFF89420E1C5
:1009F0002A95F1F700C0BBBAA8BA85B3836085BB5E
:100A000030E13A95F1F700C088E18BBB98BA85B325
:100A10008C7F85BB0E94150386B597B58C5D95408C
:100A200099BD88BD4FE35DE063E0415050406040B8
:100A3000E1F700C000000E9422037894BBBAA8BA74
:100A400085B3836085BB81EE94E00197F1F700C028
:100A5000000088E18BBB98BA85B38C7F85BB0F2ED5
:100A6000F4E6EF2EF12CF02D0F2EF8E18F2EF02D65
:100A70000F2EF7EE4F2EF02D6894552452F87B2C54
:100A80003A2C0E942A038091E8009091E9006AE3E1
:100A900070E00E94410C6B017BBA38BA85B3836069
:100AA00085BBA1EEB4E01197F1F700C000008BBA4E
:100AB00098BA85B38C7F85BB62E081E00E947202A8
:100AC0008CE890E00E94060360E082E00E947202DF
:100AD00081E790E00E940603C601BBE0CB16D1047B
:100AE00030F45BBA48BA85B3836085BB15C0960104
:100AF0002B5031092A30310538F482E08BBB48BADB
:100B000085B3836085BB08C0459730F081E08BBB1F
:100B100048BA85B3836085BBBBB2A8B2B60188274B
:100B200077FD8095982F0E94060C022D162D22E04D
:100B300042E00E94690CEDA5FEA501900020E9F7B6
:100B4000319703E61DE620E230E000831183228323
:100B5000338369E082E00E947202822D962D0E940A
:100B600006037BBA38BA85B3836085BB81EE94E017
:100B70000197F1F700C000008BBA98BA85B38C7F5B
:100B800085BB91E0E91AF108E114F10409F079CF8D
:100B90008A2DA32C3B2CB72C782EF8943BBA88BB1B
:100BA00085B3836085BBA0E1AA95F1F700C0BBBA0D
:100BB000A8BA81EE94E00197F1F700C0000088E147
:100BC0008BBB98BA85B38C7F85BB0E94150386B515
:100BD00097B58E59974099BD88BD9FE3ADE0B3E0CE
:100BE0009150A040B040E1F700C000000E942203F5
:100BF00078943BBA78BA85B3836085BB81EE94E084
:100C00000197F1F700C00000BBBAA8BAA1EEB4E0AA
:100C10001197F1F700C0000088E18BBB98BA85B34B
:100C20008C7F85BB0F2EF4E6EF2EF12CF02D0F2ECE
:100C3000F8E15F2EF02D0F2EFBEF4F2EF02D99AA2D
:100C400047010E942A038091E8009091E9006AE33D
:100C500070E00E94410C7B013BBA78BA85B3836097
:100C600085BB81EE94E00197F1F700C00000BBBAAC
:100C7000A8BAA1EEB4E01197F1F700C000005BBA8A
:100C8000B9A9B8BB85B38C7F85BB62E081E00E94C7
:100C900072028BE990E00E94060360E082E00E940D
:100CA000720281E790E00E940603C7010BE0E016A4
:100CB000F10438F414E01BBB48BA85B3836085BBEC
:100CC00017C097012B5031092A30310540F482E0DA
:100CD0008BBB2DEF28BB85B3836085BB09C04597CF
:100CE00038F081E08BBB3EEF38BB85B3836085BBBA
:100CF000DBB2C8B2B701882777FD8095982F0E9494
:100D0000060C022D162D22E042E00E94690CEDA592
:100D1000FEA501900020E9F7319743E65DE660E229
:100D200070E0408351836283738369E082E00E94B4
:100D30007202822D962D0E9406033BBA78BA85B3C3
:100D4000836085BB81EE94E00197F1F700C000005D
:100D5000BBBAA8BAA1EEB4E01197F1F700C0000049
:100D60005BBAB9A9B8BB85B38C7F85BB01E0801A9B
:100D700091088114910409F064CF99A88C2CD9AA08
:100D8000F89419A91BBBC8BA85B3836085BB20E161
:100D90002A95F1F700C03BBA78BA81EE94E001974A
:100DA000F1F700C00000BBBAA8BAA1EEB4E01197F9
:100DB000F1F700C0000088E18BBB98BA85B38C7F47
:100DC00085BB0E94150386B597B58056994099BD9D
:100DD00088BDBFE30DE013E0B15000401040E1F7E3
:100DE00000C000000E942203789429A92BBBC8BA36
:100DF00085B3836085BB81EE94E00197F1F700C075
:100E000000003BBA78BAA1EEB4E01197F1F700C048
:100E10000000BBBAA8BA81EE94E00197F1F700C0D8
:100E2000000088E18BBB98BA85B38C7F85BB0F2E01
:100E3000F4E6EF2EF12CF02D0F2EF8E14F2EF02DD1
:100E40009AAA9B2C5A2C0E942A038091E800909128
:100E5000E9006AE370E00E94410C6B0162E081E00E
:100E60000E9472028AEA90E00E94060360E082E03B
:100E70000E94720281E790E00E940603C601ABE087
:100E8000CA16D10418F4BBEFB8BB0DC096012B50A5
:100E900031092A30310518F40DEF08BB04C045971D
:100EA00010F01EEF18BBB8B2B601882777FD809509
:100EB000982F0E94060C022D162D22E042E00E947F
:100EC000690CEDA5FEA501900020E9F7319723E616
:100ED0003DE640E250E0208331834283538369E062
:100EE00082E00E947202822D962D0E94060339A98B
:100EF0003BBB88BA85B3836085BB81EE94E00197E4
:100F0000F1F700C000003BBA78BAA1EEB4E0119747
:100F1000F1F700C000009BBA58BA81EE94E0019747
:100F2000F1F700C000004BBA9AA998BB85B38C7F3B
:100F300085BBA1E0EA1AF108E114F10409F083CFBE
:100F4000A52C5B2CB92C9AA8F8943BBB88BA85B326
:100F5000836085BB81EE94E00197F1F700C000004B
:100F60003BBA78BAA1EEB4E01197F1F700C00000E7
:100F7000BBBAA8BA81EE94E00197F1F700C0000077
:100F800088E18BBB952098BA85B38C7F85BB0E9486
:100F9000150386B597B58A5194409BBD8ABD9FE3E2
:100FA000ADE0B3E09150A040B040E1F700C00000D8
:100FB0000E942203789409A90BBB88BA85B3836089
:100FC00085BB81EE94E00197F1F700C000003BBAC9
:100FD00078BAA1EEB4E01197F1F700C00000BBBAF7
:100FE000A8BA81EE94E00197F1F700C0000088E113
:100FF0008BBB98BA85B38C7F85BB0F2EF4E64F2E42
:10100000512CF02D0F2EF8E1DF2EF02DDAAA62011F
:101010000E942A038091E8009091E9006AE370E061
:101020000E94410C7B0199A99BBB88BA85B3836060
:1010300085BBA1EEB4E01197F1F700C000003BBA08
:1010400078BA81EE94E00197F1F700C00000BBBAD6
:10105000A8BAA1EEB4E01197F1F700C00000BAA958
:10106000BBBB98BA85B38C7F85BB62E081E00E94F0
:10107000720289EB90E00E94060360E082E00E9429
:10108000720281E790E00E940603C7010BE0E016C0
:10109000F10440F410E21BBB2BEF28BB85B3836047
:1010A00085BB17C097012B5031092A30310540F418
:1010B00030E43BBB4DEF48BB85B3836085BB09C0C3
:1010C000459738F050E85BBB6EEF68BB85B3836033
:1010D00085BB5BB248B2B701882777FD8095982F12
:1010E0000E94060C022D162D22E042E00E94690C9F
:1010F000EDA5FEA501900020E9F7319783E69DE676
:10110000A0E2B0E080839183A283B38369E082E0B0
:101110000E947202822D962D0E94060399A99BBB04
:1011200088BA85B3836085BBA1EEB4E01197F1F76F
:1011300000C000003BBA78BA81EE94E00197F1F765
:1011400000C00000BBBAA8BAA1EEB4E01197F1F755
:1011500000C00000BAA9BBBB98BA85B38C7F85BB21
:1011600001E0C01AD108C114D10409F051CFC52C37
:101170004AAAF8945BBA1AA918BB85B3836085BBE9
:1011800020E12A95F1F700C039A93BBB88BA81EE6E
:1011900094E00197F1F700C000003BBA78BAA1EEE5
:1011A000B4E01197F1F700C00000BBBAA8BA81EE15
:1011B00094E00197F1F700C0000088E18BBB98BA7A
:1011C00085B38C7F85BB0E94150386B597B58C5D72
:1011D00095409BBD8ABD9FE3ADE0B3E09150A04038
:1011E000B040E1F700C000000E94220378945BBA8F
:1011F00018BB85B3836085BB81EE94E00197F1F75E
:1012000000C0000099A99BBB88BAA1EEB4E0119779
:10121000F1F700C000003BBA78BA81EE94E0019784
:10122000F1F700C00000BBBAA8BAA1EEB4E0119774
:10123000F1F700C0000088E18BBB98BA85B38C7FC2
:1012400085BB0F2EF4E64F2E512CF02D0F2EF8E11A
:10125000DF2EF02D72010E942A038091E800909108
:10126000E9006AE370E00E94410C8B01CBBABAA995
:10127000B8BB85B3836085BB81EE94E00197F1F73D
:1012800000C0000099A99BBB88BAA1EEB4E01197F9
:10129000F1F700C000003BBA78BA81EE94E0019704
:1012A000F1F700C00000BBBAA8BAA1EEB4E01197F4
:1012B000F1F700C00000DBBA98BA85B38C7F85BB1C
:1012C00062E081E00E94720288EC90E00E940603D6
:1012D00060E082E00E94720281E790E00E940603D3
:1012E0000B30110540F420E22BBB37EE38BB85B341
:1012F000836085BB18C098012B5031092A30310515
:1013000040F440E44BBB57EE58BB85B3836085BBCC
:101310000AC00531110538F060E86BBB77EE78BB89
:1013200085B3836085BB5BB248B2B801882777FD7F
:101330008095982F0E94060C022D162D22E042E087
:101340000E94690CEDA5FEA501900020E9F73197F8
:1013500083E69DE6A0E2B0E080839183A283B3831D
:1013600069E082E00E947202822D962D0E9406039F
:10137000CBBA9AA998BB85B3836085BBA1EEB4E0D4
:101380001197F1F700C00000B9A9BBBB88BA81EE84
:1013900094E00197F1F700C000003BBA78BAA1EEE3
:1013A000B4E01197F1F700C00000BBBAA8BA81EE13
:1013B00094E00197F1F700C00000DBBA98BA85B35A
:1013C0008C7F85BB91E0E91AF108E114F10409F082
:1013D00042CF5BAA4CAAF894ABA9ABBBBCA9B8BBE3
:1013E00085B3836085BB00E10A95F1F700C0CBBAF5
:1013F0001AA918BB81EE94E00197F1F700C0000034
:1014000099A99BBB88BAA1EEB4E01197F1F700C08F
:1014100000003BBA78BA81EE94E00197F1F700C082
:101420000000BBBAA8BAA1EEB4E01197F1F700C072
:10143000000088E18BBB98BA85B38C7F85BB0E9486
:10144000150386B597B58E5997409BBD8ABDBFE3FE
:101450000DE013E0B15000401040E1F700C0000083
:101460000E94220378942BA92BBB3CA938BB85B3DF
:10147000836085BB81EE94E00197F1F700C0000026
:10148000CBBA9AA998BBA1EEB4E01197F1F700C0CE
:101490000000B9A9BBBB88BA81EE94E00197F1F7CF
:1014A00000C000003BBA78BAA1EEB4E01197F1F7A2
:1014B00000C00000BBBAA8BA81EE94E00197F1F732
:1014C00000C0000088E18BBB98BA85B38C7F85BBD8
:1014D0000F2EF4E64F2E512CF02D0F2EF8E1DF2EBB
:1014E000F02DCDAADEAA62010E942A038091E800B5
:1014F0009091E9006AE370E00E94410C2B019BA9E6
:101500009BBBACA9A8BB85B3836085BB81EE94E08F
:101510000197F1F700C000009DA99BBBAAA9A8BB39
:1015200081EE94E00197F1F700C0000099A99BBB00
:1015300088BAA1EEB4E01197F1F700C000003BBA01
:1015400078BA81EE94E00197F1F700C00000BBBAD1
:10155000A8BAA1EEB4E01197F1F700C00000BEA94F
:10156000BBBB98BA85B38C7F85BB62E081E00E94EB
:10157000720287ED90E00E94060360E082E00E9424
:10158000720281E790E00E940603C2010BE0401660
:10159000510440F410E21BBB2FED28BB85B38360E0
:1015A00085BB17C092012B5031092A30310540F418
:1015B00030E43BBB4FEB48BB85B3836085BB09C0C0
:1015C000459738F050E85BBB6FE768BB85B3836035
:1015D00085BBFBB2E8B2B201882777FD8095982FD2
:1015E0000E94060C022D162D22E042E00E94690C9A
:1015F000EDA5FEA501900020E9F7319783E69DE671
:10160000A0E2B0E080839183A283B38369E082E0AB
:101610000E947202822D962D0E9406039BA99BBBFD
:10162000ACA9A8BB85B3836085BB81EE94E001972C
:10163000F1F700C000009DA99BBBAAA9A8BB81EE41
:1016400094E00197F1F700C0000099A99BBB88BA0C
:10165000A1EEB4E01197F1F700C000003BBA78BAF0
:1016600081EE94E00197F1F700C00000BBBAA8BA80
:10167000A1EEB4E01197F1F700C00000BEA9BBBB1A
:1016800098BA85B38C7F85BB01E0C01AD108C1141C
:10169000D10409F029CFCDA8F894F9821BA91A83A7
:1016A000CB8229A92C833D82BE82EB863CA93C8754
:1016B0004AA94D878E867F86A88ADE011B96FE0189
:1016C00031968FEF9191913011F49C91892311966D
:1016D0006FA578A9E617F707A9F7DE011B96FE01AB
:1016E00031962FEF9191923011F49C91292311960C
:1016F0000FA518A90E171F07A9F7DE011B96FE01FB
:1017000031965FEF9191943011F49C915923119689
:101710006FA578A96E177F07A9F7DE011B96FE015A
:1017200031966FEF9191903211F49C91692311964B
:101730000FA518A90E171F07A9F7DE011B96FE01BA
:1017400031964FEF9191903411F49C914923119669
:101750000FA518A90E171F07A9F7DE011B96FE019A
:1017600031963FEF9191903811F49C913923119665
:101770000FA518A9E017F107A9F78DA32EA35FA362
:1017800098A699A66AA74BA73CA704EF11E0CE0143
:1017900085960E943D030150110901151105B9F705
:1017A0000E9415030C94CD031F920F920FB60F9257
:1017B00011248F939F938091E6009091E700019709
:1017C00069F41EBC8CB59DB59093E9008093E80048
:1017D0001DBC1CBC1092E7001092E6008091E60050
:1017E0009091E700892B49F48EB581608EBD81E030
:1017F00090E09093E7008093E6009F918F910F9087
:101800000FBE0F901F901895E89409C097FB3EF407
:1018100090958095709561957F4F8F4F9F4F99233D
:10182000A9F0F92F96E9BB279395F69587957795BB
:101830006795B795F111F8CFFAF4BB0F11F460FF7B
:101840001BC06F5F7F4F8F4F9F4F16C0882311F0D3
:1018500096E911C0772321F09EE8872F762F05C0E7
:10186000662371F096E8862F70E060E02AF09A9582
:10187000660F771F881FDAF7880F9695879597F977
:10188000089597FB072E16F4009407D077FD09D032
:101890000E94550C07FC05D03EF4909581959F4F12
:1018A0000895709561957F4F0895AA1BBB1B51E168
:1018B00007C0AA1FBB1FA617B70710F0A61BB70BC0
:1018C000881F991F5A95A9F780959095BC01CD0165
:1018D0000895EF920F931F93CF93DF93E80147FF93
:1018E00002C034E101C034E0E42FFF27E7FDF095AA
:1018F000F7FF03C0F195E195F109E32E022F2E2F9A
:10190000AE010E948A0CCE01DF91CF911F910F9101
:10191000EF9008956F927F929F92AF92BF92CF9275
:10192000DF92EF92FF920F931F93CF93DF93CDB788
:10193000DEB729970FB6F894DEBF0FBECDBF6A01A0
:10194000B22E102F0C3320F4FF24F394F00E02C0BB
:101950004CE3F42E0F2D27E0AE014F5F5F4F0E9446
:10196000080E7981272F2970213031F0E1FC06C063
:10197000E0FC06C060E005C06DE203C06BE201C0A0
:1019800060E2AE2DA07173FF36C0662311F084E0D3
:1019900001C083E08B1510F4B81A01C0B12CA1115D
:1019A0000BC0F6018B2D90E2882319F091938150A2
:1019B000FBCFCB0CD11CB12C662331F0F601608338
:1019C00096012F5F3F4F6901C6010396E2FE05C0F5
:1019D0002EE4F601208331E404C02EE6F6012083D4
:1019E00031E631832283FC012B2D30E22223F1F1F9
:1019F00031932150FBCF72FF40C0662311F084E089
:101A000001C083E08B1510F4B81A01C0B12CA111EC
:101A10000BC0F6018B2D90E2882319F09193815031
:101A2000FBCFCB0CD11CB12C662331F0F6016083C7
:101A300096012F5F3F4F6901C6010396E2FE07C082
:101A400029E4F60120832EE4218326E406C029E65A
:101A5000F60120832EE6218326E62283FC012B2D2E
:101A600030E2222319F031932150FBCFFC01EB0D22
:101A7000F11D10828EEF9FEFB7C0B1E0611101C080
:101A8000B0E04B2F50E01816190624F49C012F5F8C
:101A90003F4F02C021E030E0240F351F112329F011
:101AA000412F50E04F5F5F4F02C040E050E0420FD7
:101AB000531F2B2D30E04217530714F4B41A01C002
:101AC000B12C2E2D287159F4F6012B2D30E2222352
:101AD00019F031932150FBCFCB0CD11CB12CBB237F
:101AE00031F0F601608396012F5F3F4F6901A1112C
:101AF0000BC0F6012B2D30E3222319F03193215036
:101B0000FBCFCB0CD11CB12CF80E0A81372F3071D2
:101B1000A32E74FF03C0013309F4FA941F142CF4AC
:101B20002F2D293018F028E001C021E0682F392F2F
:101B300097FF02C060E030E0462F532F612C712CDC
:101B40003EE2932EBC01621B71099B01DC01A41BC8
:101B5000B50BE1E0F0E0EC0FFD1FAE0FBF1FE12E73
:101B6000F12CF194E194F1084F3FFFEF5F0731F45E
:101B7000F6019082B6016F5F7F4F6B018417950766
:101B80004CF02417350734F4BD01660D771DFB01B9
:101B9000118101C010E341505109FFEF6F1A7F0A14
:101BA000B6016F5F7F4F4E155F0524F0F60110837D
:101BB0006B01DACF4817590739F4063320F405339F
:101BC00019F4A11001C011E3F6011083FB018B2D64
:101BD00090E2882319F091938150FBCFFB01EB0D2C
:101BE000F11D108280E090E029960FB6F894DEBFD8
:101BF0000FBECDBFDF91CF911F910F91FF90EF905E
:101C0000DF90CF90BF90AF909F907F906F9008959E
:101C1000283008F027E03327DA01990F311D87FDBE
:101C2000916000966105710539F432602E5F3D9335
:101C300030E32A95E1F708959F3F30F08038710531
:101C4000610509F03C5F3C5F3D93913008F080688E
:101C5000911DDF93CF931F930F93FF92EF92192F54
:101C6000987F9695E92F96959695E90FFF27E2556F
:101C7000FF4F99273327EE24FF24A701E7010590A2
:101C80000894079428F4360FE71EF81E491F511DCB
:101C9000660F771F881F991F0694A1F70590079478
:101CA00028F4E70EF81E491F561FC11D770F881F25
:101CB000991F661F0694A1F70590079428F4F80E63
:101CC000491F561FC71FD11D880F991F661F771FF9
:101CD0000694A1F70590079420F4490F561FC71FDB
:101CE000D81F990F661F771F881F0694A9F7849144
:101CF0001095177041F0D695C79557954795F7946D
:101D0000E7941A95C1F7E4E5F0E068941590159111
:101D100035916591959105907FE27395E118F10AEF
:101D2000430B560BC90BD009C0F7E10CF11E431F42
:101D3000561FC91FD01D7EF4703311F48A95E6CF6B
:101D4000E894015030F0080F0AF40027021708F455
:101D5000202F2395022F7A3328F079E37D932A955B
:101D6000E9F710C07D932A9589F6069497956795B3
:101D7000379517951794E118F10A430B560BC90BC9
:101D8000D00998F023957E9173957A3308F070E32B
:101D90007C932013B8F77E9170617D9330F083952A
:101DA00071E37D9370E32A95E1F71124EF90FF90A2
:101DB0000F911F91CF91DF91992787FD90950895FD
:041DC000F894FFCFC5
:101DC400496E697469616C20706F736974696F6EB0
:101DD4000044495354414E43453D002020343520AE
:101DE400646567206C6566742020200039302064A7
:101DF4006567206C656674202020003133352064CB
:101E04006567206C65667420200031383020646575
:101E140067206C6566742020003232352064656763
:101E2400206C65667420200032373020646567209A
:101E34006C65667420200033313520646567206C3E
:061E440065667420000039
:00000001FF
